:020000040800F2
:1000000000500020291A0008451900084D19000861
:10001000551900085D190008651900080000000066
:100020000000000000000000000000006D19000842
:1000300079190008000000008519000891190008CE
:10004000711A0008711A0008711A0008711A000864
:10005000711A0008711A0008711A0008711A000854
:10006000711A0008711A0008711A0008711A000844
:10007000711A0008711A0008711A0008711A000834
:10008000711A0008711A0008711A0008711A000824
:10009000711A0008711A0008711A0008711A000814
:1000A000711A0008711A0008711A0008711A000804
:1000B0009D190008711A0008711A0008711A0008C9
:1000C000711A0008711A0008711A0008711A0008E4
:1000D000711A0008711A0008711A0008711A0008D4
:1000E000711A0008711A0008711A00080000000057
:1000F0000000000000000000000000000000000000
:0C01000000000000000000005FF808F1A3
:10010C0010B5054C237833B9044B13B10448AFF345
:10011C0000800123237010BDA4000020000000000B
:10012C00A843000808B5034B1BB103490348AFF3C0
:10013C00008008BD00000000A8000020A8430008B3
:10014C0080B500AF444B1B68444A1360444B1B689A
:10015C00414A13601021434801F09EFF03461A46A2
:10016C003F4B1A603C4B1A683D4B1B689A4216D1A8
:10017C00394B1A68394B1B689A4210D1374B1A68A5
:10018C00394B1B689A420AD0344B1B68364A1360B1
:10019C00354B1B68002B02D1344B01221A60344BB7
:1001AC001B68344A1360344B1B68314A13600221BC
:1001BC002C4801F071FF03461A462F4B1A602C4B4A
:1001CC001A682D4B1B689A4216D1294B1A68294B79
:1001DC001B689A4210D1274B1A68284B1B689A420D
:1001EC000AD0244B1B68254A1360244B1B68002B38
:1001FC0002D1234B01221A60224B1B68224A136046
:10020C00224B1B681F4A13600121164801F044FF62
:10021C0003461A461D4B1A601A4B1A681B4B1B6877
:10022C009A4216D1174B1A68174B1B689A4210D179
:10023C00154B1A68164B1B689A420AD0124B1B6856
:10024C00134A1360124B1B68002B02D1114B012275
:10025C001A6000BF80BD00BF040000200800002011
:10026C0000000020000801400C000020C00000200D
:10027C001400002018000020100000201C0000209A
:10028C00C4000020240000202800002020000020B2
:10029C002C000020C800002080B500AF4FF47A710C
:1002AC00002001F04FFA00224FF480712C4801F02D
:1002BC000AFF00224FF40071294801F004FF0022CC
:1002CC008021284801F0FFFE00224021264801F041
:1002DC00FAFE264B00221A60254B02221A600122DC
:1002EC004FF480711E4801F0EEFE01224FF40071B4
:1002FC001B4801F0E8FE012280211A4801F0E3FEC0
:10030C0000224021184801F0DEFE1A4B00221A6030
:10031C00194B00221A6000F0FAFD0021012000F0B8
:10032C0000FE164800F0DEFD0C21012000F0F9FD66
:10033C00134B1B68184600F017FE0021022000F03A
:10034C00F0FD104800F0CEFD0C21022000F0E9FD7C
:10035C000D4B1B68184600F007FE00BF80BD00BFA8
:10036C000008014000100140000C01405402002024
:10037C003C0000204C02002050020020C04300082A
:10038C0040000020CC4300084400002080B500AFA2
:10039C00954B1B68002B40F07C81944B1B68012B08
:1003AC0040F07781924B1B68022B24D0022B61DC2E
:1003BC00002B02D0012B3CD05CE08E4B1B68013330
:1003CC008C4A13608B4B1A688B4B1B689A4253DB1D
:1003DC0001224FF48071894801F075FE00224FF420
:1003EC000071864801F06FFE814B02221A60814B2E
:1003FC0000221A6040E07F4B1B6801337D4A13607A
:10040C007C4B1A687E4B1B689A4237DB00224FF4F8
:10041C0080717A4801F057FE01224FF40071774841
:10042C0001F051FE724B01221A60724B00221A60CD
:10043C0024E0704B1B6801336E4A13606E4B1A68D4
:10044C006F4B1B68D21A6B4B1B689A4218DC01224B
:10045C004FF48071694801F036FE01224FF40071AF
:10046C00664801F030FE624B00221A60614B00229C
:10047C001A6005E000BF04E000BF02E000BF00E02E
:10048C0000BF604B1B68022B22D0022B5BDC002BC5
:10049C0002D0012B38D056E05B4B1B6801335A4A13
:1004AC001360594B1A68544B1B689A424DDB01225E
:1004BC008021564801F007FE00224021544801F0EB
:1004CC0002FE504B02221A604F4B00221A603CE095
:1004DC004D4B1B6801334C4A13604B4B1A68484B0D
:1004EC001B689A4233DB00228021484801F0EBFD67
:1004FC0001224021464801F0E6FD424B01221A60E0
:10050C00414B00221A6022E03F4B1B6801333E4AEC
:10051C001360394B1A683A4B1B68D21A3A4B1B685A
:10052C009A4216DC01228021384801F0CCFD0122D0
:10053C004021374801F0C7FD324B00221A60324B84
:10054C0000221A6005E000BF04E000BF02E000BF1B
:10055C0000E000BF264B1B68002B05D1264B1A6808
:10056C00244B1B68D31A11E0214B1B68012B08D1BB
:10057C00214B1A68224B1B68D21A1E4B1B68D31ACC
:10058C0004E01F4B1A681B4B1B68D31A214A1360DB
:10059C001C4B1B68002B05D1174B1A681A4B1B6898
:1005AC00D31A11E0174B1B68012B08D1124B1A6898
:1005BC00134B1B68D21A144B1B68D31A04E0104B54
:1005CC001A68114B1B68D31A134A136000F09FFC76
:1005DC000021012000F0A5FC054B1B68002B1FD14E
:1005EC000E4800F07FFC26E0D40000202002002002
:1005FC00540200204C020020400000200008014062
:10060C00440000203C00002050020020001001405B
:10061C00000C0140580200205C020020C04300087E
:10062C001D4B1B68022B03D11C4800F05BFC02E045
:10063C001B4800F057FC0C21012000F072FC194BF8
:10064C001B68184600F090FC0021022000F069FCA9
:10065C00154B1B68002B03D1144800F043FC0AE037
:10066C00114B1B68022B03D10C4800F03BFC02E041
:10067C000B4800F037FC0C21022000F052FC0C4B14
:10068C001B68184600F070FC4FF47A71002001F0E2
:10069C0059F800BF80BD00BF54020020CC430008B5
:1006AC00D8430008580200203C000020C04300083A
:1006BC005C02002080B500AF00224FF480711A4814
:1006CC0001F001FD00224FF40071174801F0FBFC12
:1006DC0000228021154801F0F6FC0022402114482C
:1006EC0001F0F1FC01224FF480710F4801F0EBFC9A
:1006FC0001224FF400710C4801F0E5FC012280212D
:10070C000A4801F0E0FC00224021094801F0DBFC22
:10071C0000F0FDFB0221012000F003FC054800F075
:10072C00E1FB00BF80BD00BF00080140001001408C
:10073C00000C0140E443000880B500AF554B1B682A
:10074C00012B40F0A4804FF48071534801F0A4FCBD
:10075C000346002B0BD04FF400714F4801F09CFC6A
:10076C000346002B03D04D4B01221A7002E04B4B79
:10077C0000221A7080214A4801F08EFC0346002B9F
:10078C000AD04021474801F087FC0346002B03D0D8
:10079C00454B01221A7002E0434B00221A70434B66
:1007AC001B68012B39D1404B1B78012B32D14FF4F4
:1007BC008071394801F070FC0346012B0CD10022EA
:1007CC004FF48071344801F07EFC01224FF400712B
:1007DC00314801F078FC1DE04FF400712E4801F017
:1007EC005BFC0346012B15D101224FF480712A4882
:1007FC0001F069FC01224FF40071274801F063FC01
:10080C0001228021264801F05EFC0022402125486F
:10081C0001F059FC254B00221A60254B1B68012B5B
:10082C0035D11E4B1B78012B2ED180211C4801F099
:10083C0033FC0346012B0AD100228021184801F019
:10084C0042FC01224021174801F03DFC1CE04021F4
:10085C00144801F021FC0346012B15D10122802103
:10086C000F4801F030FC012240210E4801F02BFC16
:10087C0001224FF48071084801F025FC00224FF44E
:10088C000071054801F01FFC094B00221A6000BFE3
:10089C0080BD00BFD400002000080140CC00002027
:1008AC0000100140000C0140CD000020C4000020CD
:1008BC00C800002080B500AF00224FF4807123489F
:1008CC0001F001FC00224FF40071204801F0FBFB09
:1008DC00002280211E4801F0F6FB002240211D4819
:1008EC0001F0F1FB1C4B00221A6001224FF48071C5
:1008FC00164801F0E8FB01224FF40071134801F097
:10090C00E2FBFA21022000F01DFF144B00221A70AA
:10091C00134B00221A7000F0FAFA0121012000F0AA
:10092C0000FB104800F0DEFA0021022000F0F9FA7A
:10093C000D4800F0D7FA0C21022000F0F2FA0B4B14
:10094C001B68184600F010FB00BF80BD000801407A
:10095C0000100140000C0140D0000020CE0000200F
:10096C00CF000020F443000804440008400000209D
:10097C0080B500AF7A4B1B68022B08D0784B1B68F4
:10098C00032B04D0764B1B68042B40F0E680754B90
:10099C001B68002B03D1744B1B68002B7BD0714B55
:1009AC001B68012B1CD1714B1B68002B05D1704BA4
:1009BC001B6801336E4A13600EE06C4B1B68022BF4
:1009CC0005D16C4B1B6801336A4A136004E06A4B17
:1009DC001B680133684A1360624B00221A601FE0E7
:1009EC00614B1B68012B1BD1604B1B68002B05D185
:1009FC005F4B1B68013B5E4A13600EE05B4B1B6850
:100A0C00022B05D15B4B1B68013B5A4A136004E077
:100A1C00594B1B68013B584A1360534B00221A6018
:100A2C00524B1B68002B09D0504B1B68012B02D179
:100A3C00514B1B6804E04F4B1B6801E04C4B1B688F
:100A4C004E4A136000F063FA0121012000F069FAAC
:100A5C004B4800F047FA0021022000F062FA434BA9
:100A6C001B68002B03D1474800F03CFA0AE03F4BCF
:100A7C001B68022B03D1444800F034FA02E04348CF
:100A8C0000F030FA0C21022000F04BFA3B4B1B68B3
:100A9C00184600F069FA3E4B9B68012B5DD1334B35
:100AAC001B68002B0AD14FF480713A4801F023FBEC
:100ABC004FF40071374801F01EFB4AE02B4B1B68CA
:100ACC00022B23D1344B1B78002B0FD100224FF477
:100ADC008071304801F0F7FA00224FF400712D4874
:100AEC0001F0F1FA2C4B01221A7032E001224FF482
:100AFC008071284801F0E7FA00224FF40071254874
:100B0C0001F0E1FA244B00221A7022E0234B1B78EF
:100B1C00002B0FD100224FF480711E4801F0D3FA44
:100B2C0000224FF400711B4801F0CDFA1B4B01223F
:100B3C001A700EE000224FF48071164801F0C3FACF
:100B4C0001224FF40071134801F0BDFA134B00223F
:100B5C001A70FA21022000F0F5FD00BF80BD00BF25
:100B6C00D4000020C4000020C8000020D0000020C9
:100B7C004000002044000020480000205C020020BF
:100B8C00F443000804440008104400081C44000806
:100B9C002002002000080140CE000020CF000020E1
:100BAC0080B500AF794B1B68062B00F2C78001A201
:100BBC0052F823F0DD0B0008F30B0008090C0008B9
:100BCC001F0C0008690C0008B10C0008DB0C0008B5
:100BDC006F4B1B68012B40F0B380FFF75DFB6C4B38
:100BEC0000221A60ACE06A4B1B68012B40F0AA8013
:100BFC00FFF760FD664B00221A60A3E0644B1B6894
:100C0C00012B40F0A180FFF755FE614B00221A60CA
:100C1C009AE05F4B1B68012B40F098805D4B0222E1
:100C2C001A6000F074F90121012000F07AF95A4899
:100C3C0000F058F90021022000F073F9574800F039
:100C4C0051F90C21022000F06CF9554B1B68184629
:100C5C0000F08AF94E4B00221A6077E04C4B1B686F
:100C6C00012B75D14B4B01221A6000F050F9012178
:100C7C00012000F056F9484800F034F90021022018
:100C8C0000F04FF9474800F02DF90C21022000F03C
:100C9C0048F9454B1B68184600F066F93C4B00229E
:100CAC001A6055E03A4B1B68012B53D13C4B1A6828
:100CBC003D4B1B681A443D4B1B689A4203D1334B86
:100CCC0000221A6046E0314B06221A6042E0304B9B
:100CDC001B68012B40D100224FF48071344801F085
:100CEC00F2F900224FF40071314801F0ECF90022C6
:100CFC008021304801F0E7F9002240212E4801F014
:100D0C00E2F900F004F90221012000F00AF92B4865
:100D1C0000F0E8F80221022000F003F9284800F066
:100D2C00E1F8224B05221A601D4B03221A601E4B60
:100D3C0002221A60164B00221A600DE000BF0CE074
:100D4C0000BF0AE000BF08E000BF06E000BF04E0FF
:100D5C0000BF02E000BF00E000BF1A4B1B68012B74
:100D6C0012D10B4B01221A60084B1B68042B05DCBB
:100D7C00064B1B680133054A136002E0034B00224B
:100D8C001A60104B00221A6000BF80BDD4000020F6
:100D9C0030000020D000002028440008384400080F
:100DAC00440000204444000848000020400000207B
:100DBC000008014000100140000C014050440008A4
:100DCC0060440008C000002080B586B002AF034626
:100DDC00FB71FB7923F00F03FB73FB791B01BB73D6
:100DEC00FB7B43F00C03DBB23B72FB7B43F0080351
:100DFC00DBB27B72BB7B43F00C03DBB2BB72BB7B05
:100E0C0043F00803DBB2FB7207F108026423009382
:100E1C0004234221034801F0CBFA00BF1037BD4632
:100E2C0080BD00BFD800002080B586B002AF03465D
:100E3C00FB71FB7923F00F03FB73FB791B01BB7375
:100E4C00FB7B43F00D03DBB23B72FB7B43F00903EE
:100E5C00DBB27B72BB7B43F00D03DBB2BB72BB7BA3
:100E6C0043F00903DBB2FB7207F108026423009321
:100E7C0004234221034801F09BFA00BF1037BD4602
:100E8C0080BD00BFD800002080B500AF3320FFF735
:100E9C009BFF3220FFF798FF322000F047FE2820FE
:100EAC00FFF792FF322000F041FE0120FFF78CFF8C
:100EBC00322000F03BFE0620FFF786FF322000F0C8
:100ECC0035FE0C20FFF780FF322000F02FFE0220B1
:100EDC00FFF77AFF322000F029FE8020FFF774FF25
:100EEC0000BF80BD80B582B000AF786006E07B6843
:100EFC005A1C7A601B781846FFF796FF7B681B78A4
:100F0C00002BF4D100BF00BF0837BD4680BD80B5B3
:100F1C0000AF0120FFF758FF022000F007FE00BFD2
:100F2C0080BD80B584B000AF786039607B68012BE0
:100F3C0008D17B68DAB23B68DBB21344DBB27F3397
:100F4C00FB7308E03B68DBB24033DBB25BB263F0AF
:100F5C007F035BB2FB73FB7B1846FFF735FF00BFCB
:100F6C001037BD4680BD000080B584B000AF7860FE
:100F7C0007F10C037A680649184602F05FFD07F189
:100F8C000C031846FFF7AEFF00BF1037BD4680BDFF
:100F9C006C44000880B500AF00F066FD00F030F83E
:100FAC0000F0E4F800F068F800F094F80F4802F054
:100FBC00A3F9FFF769FF00F05BFA0A2200210C4845
:100FCC0000F070FA0A2200210A4800F06BFA0A229B
:100FDC000021094800F066FA0A220021074800F0B7
:100FEC0061FA00F069FB30BF00BFFAE72C0100206A
:100FFC00990300087D09000845070008AD0B00089F
:10100C0080B590B000AF07F11803282200211846D4
:10101C0002F034FD3B1D00221A605A609A60DA60BF
:10102C001A610223BB610123BB621023FB62002304
:10103C007B6307F11803184601F012FD0346002BE1
:10104C0001D000F023F90F237B600023BB60002349
:10105C00FB6000233B6100237B613B1D0021184694
:10106C0001F080FF0346002B01D000F00FF900BF08
:10107C004037BD4680BD000080B500AF124B134A0F
:10108C001A60114B124A5A600F4B00229A600E4B99
:10109C000022DA600C4B4FF480421A610A4B00229A
:1010AC005A61094B00229A61074B0022DA61064B08
:1010BC0000221A62044801F037F80346002B01D0D5
:1010CC0000F0E4F800BF80BDD800002000540040C0
:1010DC00A086010080B586B000AF07F1080300229E
:1010EC001A605A609A60DA603B4600221A605A60B5
:1010FC001D4B4FF080421A601B4B41F63F725A60F9
:10110C00194B00229A60184B0922DA60164B002208
:10111C001A61154B00229A61134802F09DF80346A0
:10112C00002B01D000F0B2F84FF48053BB6007F1F4
:10113C00080319460C4802F021FA0346002B01D093
:10114C0000F0A4F800233B6000237B603B4619466B
:10115C00054802F003FC0346002B01D000F096F882
:10116C0000BF1837BD4680BD2C01002080B588B06B
:10117C0000AF07F1100300221A605A609A60DA601F
:10118C00374B9B69364A43F004039361344B9B699C
:10119C0003F00403FB60FB68314B9B69304A43F05E
:1011AC00100393612E4B9B6903F01003BB60BB686B
:1011BC002B4B9B692A4A43F008039361284B9B698C
:1011CC0003F008037B607B6800228021254800F037
:1011DC007AFF00224FF44071234800F074FF002284
:1011EC004021224800F06FFF13233B6100237B61F9
:1011FC000023BB6107F1100319461B4800F0C8FD22
:10120C0080233B6101237B610023BB610223FB61D3
:10121C0007F110031946134800F0BAFD4FF4407360
:10122C003B6101237B610023BB610223FB6107F15E
:10123C00100319460C4800F0ABFD40233B61012321
:10124C007B610023BB610223FB6107F1100319468C
:10125C00064800F09DFD00BF2037BD4680BD00BF95
:10126C00001002400010014000080140000C014039
:10127C0080B582B000AF786000F088FA00F0AEF96B
:10128C00FEF75EFF00BF0837BD4680BD80B400AFDF
:10129C0072B600BF00BFFDE780B485B000AF034657
:1012AC00FB710023FB730023FB735FE0FA79424967
:1012BC0013465B0013449B000B4404331A88FB7BDE
:1012CC003E49CB5C18463C4903465B0003449B00FB
:1012DC000B4404331B889A4224D2FB7B374AD35CE1
:1012EC001946354A0B465B000B449B0013440433F0
:1012FC001988FA79304813465B0013449B00034469
:10130C0004331B88FA7B2D48825C1046CB1A99B2A9
:10131C00294A03465B0003449B00134404330A46EA
:10132C001A8028E0FA79244913465B0013449B0089
:10133C000B4404331988FB7B204AD35C18461E4AA5
:10134C0003465B0003449B00134404331B88FA7967
:10135C00CB1A98B2184913465B0013449B000B44FC
:10136C00043302461A80FB7B0133FB73144B1B784E
:10137C00FA7B9A429AD3124B1B78BB7309E0BB7B66
:10138C005A1EBB7B0D49895C0C4AD154BB7B013B7B
:10139C00BB73BA7BFB7B9A42F1D8FB7B0749FA798A
:1013AC00CA54074B1B780133DAB2054B1A7000BFD5
:1013BC001437BD4680BC704774010020EC0100203E
:1013CC00F601002080B483B000AF264B1B78002BB5
:1013DC0001D10A2341E0244B1B78BB71214B1B78B4
:1013EC00012B21D9204B5B781946204A0B465B0018
:1013FC000B449B00134404331988BA791B481346D9
:10140C005B0013449B00034404331B88164A527838
:10141C0010460B4499B2154A03465B0003449B00EB
:10142C00134404330A461A800123FB7109E0FA794C
:10143C00FB79013B0C49895C0B4AD154FB79013394
:10144C00FB71084B1B78FA799A42F0D3054B1B7849
:10145C00013BDAB2034B1A70BB7918460C37BD4608
:10146C0080BC7047F6010020EC01002074010020C4
:10147C0080B582B000AF0A4B00221A700023FB71BA
:10148C0006E0FB79184600F073F8FB790133FB7129
:10149C00FB79092BF5D900BF00BF0837BD4680BDCD
:1014AC00F601002080B584B000AF78600B467B80DD
:1014BC0013463B800023FB734BE0FA7B2949134610
:1014CC005B0013449B000B441B68002B3ED1FA7B42
:1014DC00244913465B0013449B000B447A681A6042
:1014EC00FA7B7B882049A1FB0313DB0898B21D49CA
:1014FC0013465B0013449B000B44043302461A80D2
:10150C00FA7B3B881849A1FB0313DB0898B21549F9
:10151C0013465B0013449B000B44063302461A80AF
:10152C00FA7B104913465B0013449B000B440833B1
:10153C0000221A70FB7B1846FFF7AEFE0B4B1B7894
:10154C000133DAB2094B1A70FB7B06E0FB7B0133EB
:10155C00FB73FB7B092BB0D90A2318461037BD4609
:10156C0080BD00BF74010020CDCCCCCCF701002095
:10157C0080B483B000AF0346FB71FB79092B26D8EE
:10158C00FA79154913465B0013449B000B44002267
:10159C001A60FA79104913465B0013449B000B4404
:1015AC00043300221A80FA790B4913465B0013446A
:1015BC009B000B44063300221A80FA790649134625
:1015CC005B0013449B000B44083300221A7000BFCD
:1015DC000C37BD4680BC70477401002080B582B0CA
:1015EC0000AF324B1B78002B5BD0314B1B78FB715F
:1015FC00FA79304913465B0013449B000B440433C7
:10160C001B88002B13D0FA792A4913465B0013442C
:10161C009B000B4404331B88013B98B225491346AD
:10162C005B0013449B000B44043302461A80FA7986
:10163C00204913465B0013449B000B4404331B8866
:10164C00002B2FD1FA791B4913465B0013449B00E6
:10165C000B44083301221A70FFF7B4FEFA791549CE
:10166C0013465B0013449B000B4406331B88002B72
:10167C0018D0F979FA790F480B465B000B449B00A4
:10168C000344063318880B4913465B0013449B0034
:10169C000B44043302461A80FB791846FFF7FCFD15
:1016AC0000E000BF0837BD4680BD00BFF60100203A
:1016BC00EC0100207401002080B582B000AF002343
:1016CC00FB7131E0FB79BB71BA791C4913465B00A5
:1016DC0013449B000B4408331B78002B21D0BA79A0
:1016EC00164913465B0013449B000B441B68984738
:1016FC00BA79124913465B0013449B000B44083320
:10170C0000221A70BA790D4913465B0013449B00F2
:10171C000B4406331B88002B03D1BB791846FFF70B
:10172C0027FFFB790133FB71054B1B78FA799A4241
:10173C00C8D300BF00BF0837BD4680BD7401002070
:10174C00F701002080B483B000AF786039607B680B
:10175C00002B10DB7B68092B0DDC094B1B683A68EE
:10176C0092FBF3F207497B6841F82320064A7B6819
:10177C00002142F8231000BF0C37BD4680BC7047D7
:10178C0034000020F80100202002002080B483B037
:10179C0000AF00237B601CE0124A7B6852F82330B8
:1017AC00002B13DD0F4A7B6852F823305A1E0D496B
:1017BC007B6841F823200B4A7B6852F82330002BBE
:1017CC0004D1094A7B68012142F823107B6801335C
:1017DC007B607B68092BDFDD00BF00BF0C37BD468B
:1017EC0080BC7047F80100202002002080B485B036
:1017FC0000AF154B9B69144A43F001039361124BE4
:10180C009B6903F00103BB60BB680F4BDB690E4A9D
:10181C0043F08053D3610C4BDB6903F080537B6046
:10182C007B680A4B5B68FB60FB6823F0E063FB6042
:10183C00FB6843F08063FB60044AFB68536000BFA5
:10184C001437BD4680BC70470010024000000140B8
:10185C0080B58AB000AF786007F1140300221A60DB
:10186C005A609A60DA607B681B681D4A934232D1D9
:10187C001C4B9B691B4A43F008039361194B9B69F2
:10188C0003F008033B613B694FF440737B61122307
:10189C00BB6103233B6207F114031946124800F0A5
:1018AC0077FA124B5B687B627B6A43F0E0637B6286
:1018BC007B6A43F002037B620C4A7B6A5360094BE0
:1018CC00DB69084A43F40013D361064BDB6903F46C
:1018DC000013FB60FB6800BF2837BD4680BD00BF0E
:1018EC000054004000100240000C01400000014078
:1018FC0080B584B000AF78607B681B68B3F1804F13
:10190C0013D10C4BDB690B4A43F00103D361094B38
:10191C00DB6903F00103FB60FB68002200211C2043
:10192C0000F0FFF91C2000F018FA00BF1037BD467C
:10193C0080BD00BF0010024080B400AF00BFFDE7C7
:10194C0080B400AF00BFFDE780B400AF00BFFDE77F
:10195C0080B400AF00BFFDE780B400AF00BFFDE76F
:10196C0080B400AF00BFBD4680BC704780B400AFF0
:10197C0000BFBD4680BC704780B400AF00BFBD4601
:10198C0080BC704780B500AF00F0B4F800BF80BDDC
:10199C0080B500AF024801F001FD00BF80BD00BF63
:1019AC002C01002080B586B000AF7860144A154B2E
:1019BC00D31A7B617B693B61134B1B68002B02D1F3
:1019CC00114B124A1A60104B1A687B6813443A691F
:1019DC009A4207D202F05AF803460C221A604FF0D2
:1019EC00FF3309E0084B1B68FB60074B1A687B68E8
:1019FC001344054A1360FB6818461837BD4680BD72
:101A0C00005000200004000048020020B003002019
:101A1C0080B400AF00BFBD4680BC7047FFF7F8FF35
:101A2C000B480C490C4A002302E0D458C450043330
:101A3C00C4188C42F9D3094A094C002301E0136005
:101A4C000432A242FBD302F027F8FFF7A3FA704747
:101A5C0000000020A4000020D8440008A4000020AE
:101A6C00AC030020FEE7000080B500AF084B1B68FC
:101A7C00074A43F010031360032000F047F90F20CE
:101A8C0000F008F8FFF7B2FE0023184680BD00BF37
:101A9C000020024080B582B000AF7860124B1A680B
:101AAC00124B1B7819464FF47A73B3FBF1F3B2FB6C
:101ABC00F3F3184600F05FF90346002B01D0012325
:101ACC000EE07B680F2B0AD8002279684FF0FF30AC
:101ADC0000F027F9064A7B681360002300E001231D
:101AEC0018460837BD4680BD380000205000002045
:101AFC004C00002080B400AF054B1B781A46054BF8
:101B0C001B681344034A136000BFBD4680BC70477A
:101B1C00500000206002002080B400AF024B1B6814
:101B2C001846BD4680BC70476002002080B584B06A
:101B3C0000AF7860FFF7F0FFB8607B68FB60FB6874
:101B4C00B3F1FF3F05D00A4B1B781A46FB681344D0
:101B5C00FB6000BFFFF7E0FF0246BB68D31AFA68D0
:101B6C009A42F7D800BF00BF1037BD4680BD00BFFA
:101B7C005000002080B485B000AF78607B6803F023
:101B8C000703FB600C4BDB68BB60BA684FF6FF03C6
:101B9C001340BB60FB681A02BB68134343F0BF637E
:101BAC0043F40033BB60044ABB68D36000BF1437F6
:101BBC00BD4680BC704700BF00ED00E080B400AFB4
:101BCC00044BDB681B0A03F007031846BD4680BCB8
:101BDC00704700BF00ED00E080B483B000AF034657
:101BEC00FB7197F90730002B0BDBFB7903F01F021D
:101BFC00064997F907305B09012000FA02F241F817
:101C0C00232000BF0C37BD4680BC704700E100E0CC
:101C1C0080B483B000AF03463960FB7197F907308D
:101C2C00002B0ADB3B68DAB20C4997F9073012013A
:101C3C00D2B20B4483F800230AE03B68DAB20849BD
:101C4C00FB7903F00F03043B1201D2B20B441A765A
:101C5C0000BF0C37BD4680BC704700BF00E100E000
:101C6C0000ED00E080B489B000AFF860B9607A6034
:101C7C00FB6803F00703FB61FB69C3F10703042B4B
:101C8C0028BF0423BB61FB690433062B02D9FB6913
:101C9C00033B00E000237B614FF0FF32BB6902FA8B
:101CAC0003F3DA43BB681A407B699A404FF0FF316B
:101CBC007B6901FA03F3D9437B680B401343184645
:101CCC002437BD4680BC704780B582B000AF7860C9
:101CDC007B68013BB3F1807F01D301230FE00A4AFB
:101CEC007B68013B53600F214FF0FF30FFF790FFF3
:101CFC00054B00229A60044B07221A6000231846F9
:101D0C000837BD4680BD00BF10E000E080B582B052
:101D1C0000AF78607868FFF72DFF00BF0837BD462D
:101D2C0080BD80B586B000AF0346B9607A60FB73A6
:101D3C0000237B61FFF742FF78617A68B9687869A4
:101D4C00FFF790FF024697F90F3011461846FFF740
:101D5C005FFF00BF1837BD4680BD80B582B000AFB5
:101D6C000346FB7197F907301846FFF735FF00BFA4
:101D7C000837BD4680BD80B582B000AF786078680A
:101D8C00FFF7A2FF034618460837BD4680BD00008A
:101D9C0080B48BB000AF7860396000237B62002385
:101DAC003B6269E101227B6A02FA03F3FB613B6847
:101DBC001B68FA691340BB61BA69FB699A4240F02F
:101DCC0058813B685B689A4A93425ED0984A93422A
:101DDC0075D8984A934258D0964A93426FD8964AEF
:101DEC00934252D0944A934269D8944A93424CD02D
:101DFC00924A934263D8924A934246D0904A934275
:101E0C005DD8122B2AD8122B59D801A252F823F0E4
:101E1C00971E0008711E0008831E0008C51E0008CE
:101E2C00CB1E0008CB1E0008CB1E0008CB1E0008E2
:101E3C00CB1E0008CB1E0008CB1E0008CB1E0008D2
:101E4C00CB1E0008CB1E0008CB1E0008CB1E0008C2
:101E5C00CB1E0008791E00088D1E0008794A93429B
:101E6C0013D02CE03B68DB683B6229E03B68DB6805
:101E7C0004333B6224E03B68DB6808333B621FE0C1
:101E8C003B68DB680C333B621AE03B689B68002BB9
:101E9C0002D104233B6213E03B689B68012B05D104
:101EAC0008233B627B68FA691A6109E008233B62EC
:101EBC007B68FA695A6103E000233B6200E000BFD3
:101ECC00BB69FF2B01D87B6801E07B6804337B6125
:101EDC00BB69FF2B02D87B6A9B0002E07B6A083B44
:101EEC009B003B617B691A680F213B6901FA03F384
:101EFC00DB431A40396A3B6901FA03F31A437B69E5
:101F0C001A603B685B6803F08053002B00F0B180D3
:101F1C004D4B9B694C4A43F0010393614A4B9B69BF
:101F2C0003F00103BB60BB68484A7B6A9B08023321
:101F3C0052F82330FB607B6A03F003039B000F22F3
:101F4C0002FA03F3DB43FA681340FB607B68404AF8
:101F5C00934213D07B683F4A93420DD07B683E4A34
:101F6C00934207D07B683D4A934201D1032306E09C
:101F7C00042304E0022302E0012300E000237A6A38
:101F8C0002F0030292009340FA681343FB602F495E
:101F9C007B6A9B080233FA6841F823203B685B6834
:101FAC0003F48013002B06D02D4B9A682C49BB6987
:101FBC0013438B6006E02A4B9A68BB69DB432849C4
:101FCC0013408B603B685B6803F40013002B06D056
:101FDC00234BDA682249BB691343CB6006E0204BE4
:101FEC00DA68BB69DB431E491340CB603B685B6816
:101FFC0003F40033002B06D0194B5A681849BB69FF
:10200C0013434B6006E0164B5A68BB69DB4314491B
:10201C0013404B603B685B6803F48033002B21D08A
:10202C000F4B1A680E49BB6913430B6021E000BFCC
:10203C0000003210000031100000221000002110AE
:10204C0000001210000011100010024000000140AE
:10205C0000080140000C0140001001400014014038
:10206C00000401400B4B1A68BB69DB430949134060
:10207C000B607B6A01337B623B681A687B6A22FACD
:10208C0003F3002B7FF48EAE00BF00BF2C37BD4690
:10209C0080BC70470004014080B485B000AF78600C
:1020AC000B467B807B689A687B881340002B02D0A0
:1020BC000123FB7301E00023FB73FB7B18461437F1
:1020CC00BD4680BC704780B483B000AF78600B46CF
:1020DC007B8013467B707B78002B03D07A887B68DF
:1020EC001A6103E07B881A047B681A6100BF0C3705
:1020FC00BD4680BC704780B485B000AF78600B469D
:10210C007B807B68DB68FB607A88FB6813401A0471
:10211C00FB68D9437B880B401A437B681A6100BF6C
:10212C001437BD4680BC704780B584B000AF786072
:10213C007B68002B01D101232BE17B6893F83D30A8
:10214C00DBB2002B06D17B68002283F83C20786838
:10215C00FFF77EFB7B68242283F83D207B681B689D
:10216C001A687B681B6822F001021A607B681B6886
:10217C001A687B681B6842F400421A607B681B6813
:10218C001A687B681B6822F400421A6001F032F86E
:10219C00F8607B685B68814A934207D8FB68804A89
:1021AC00934294BF01230023DBB206E0FB687D4A17
:1021BC00934294BF01230023DBB2002B01D00123F7
:1021CC00E7E0FB68784AA2FB03239B0CBB607B68AF
:1021DC001B685B6823F03F017B681B68BA680A4385
:1021EC005A607B681B681B6A23F03F017B685B6845
:1021FC006A4A934202D8BB68013309E0BB684FF4CA
:10220C00967202FB03F3694AA2FB03239B09013379
:10221C007A6812680B4313627B681B68DB6923F4D2
:10222C004F4222F0FF027B685B685C498B4219D8F5
:10223C00FB68591E7B685B685B00B1FBF3F3591CB0
:10224C0040F6FC730B40002B0AD0FB68591E7B68D0
:10225C005B685B00B1FBF3F30133C3F30B0351E099
:10226C0004234FE07B689B68002B11D1FB68581E40
:10227C007B6859680B465B000B44B0FBF3F30133EE
:10228C00C3F30B03002B0CBF01230023DBB212E0C2
:10229C00FB68581E7B6859680B469B000B449900E1
:1022AC000B44B0FBF3F30133C3F30B03002B0CBF54
:1022BC0001230023DBB2002B01D0012322E07B6839
:1022CC009B68002B0ED1FB68581E7B6859680B4627
:1022DC005B000B44B0FBF3F30133C3F30B0343F488
:1022EC0000430FE0FB68581E7B6859680B469B0047
:1022FC000B4499000B44B0FBF3F30133C3F30B0312
:10230C0043F44043796809681343CB617B681B68CD
:10231C001B6823F0C0017B68DA697B681B6A1A436F
:10232C007B681B680A431A607B681B689B6823F4F4
:10233C00034323F0FF037A6811697A68D26811436A
:10234C007A6812680B4393607B681B68DB6823F028
:10235C00FF017B685A697B689B691A437B681B6821
:10236C000A43DA607B681B681A687B681B6842F05A
:10237C0001021A607B6800221A647B68202283F8B1
:10238C003D207B6800221A637B68002283F83E2084
:10239C00002318461037BD4680BD00BFA086010043
:1023AC007F841E00FF083D0083DE1B43D34D62106B
:1023BC0080B588B002AFF8607A601A460B467B8114
:1023CC0013463B81FFF7A8FB7861FB6893F83D301F
:1023DC00DBB2202B40F0E0807B69009319230122B3
:1023EC007049F86800F064F90346002B01D0022311
:1023FC00D3E0FB6893F83C30012B01D10223CCE0F5
:10240C00FB68012283F83C20FB681B681B6803F007
:10241C000103012B07D0FB681B681A68FB681B685B
:10242C0042F001021A60FB681B681A68FB681B68A3
:10243C0022F400621A60FB68212283F83D20FB68BD
:10244C00102283F83E20FB6800221A64FB687A682D
:10245C005A62FB683A895A85FB685B8D9AB2FB68B5
:10246C001A85FB68504ADA6279897B693A6AF8689E
:10247C0000F09CF80346002B01D001238DE00023D3
:10248C003B61FB681B685B693B61FB681B689B6974
:10249C003B613B6966E07A69396AF86800F022FAB8
:1024AC000346002B0DD0FB681B6C042B07D1FB687B
:1024BC001B681A68FB681B6842F400721A600123DF
:1024CC006BE0FB685B6A1A78FB681B681A61FB6837
:1024DC005B6A5A1CFB685A62FB685B8D9BB2013BC2
:1024EC009AB2FB685A85FB681B8D013B9AB2FB685C
:1024FC001A85FB681B685B6903F00403042B1BD172
:10250C00FB681B8D002B17D0FB685B6A1A78FB6885
:10251C001B681A61FB685B6A5A1CFB685A62FB6891
:10252C005B8D9BB2013B9AB2FB685A85FB681B8D95
:10253C00013B9AB2FB681A857A69396AF86800F02F
:10254C0019FA0346002B0DD0FB681B6C042B07D12A
:10255C00FB681B681A68FB681B6842F400721A60FF
:10256C0001231AE0FB681B8D002B94D1FB681B68C0
:10257C001A68FB681B6842F400721A60FB68202220
:10258C0083F83D20FB68002283F83E20FB68002284
:10259C0083F83C20002300E0022318461837BD4680
:1025AC0080BD00BF020010000000FFFF80B588B0A6
:1025BC0002AFF8607A603B600B467B81FB68DB6A9C
:1025CC007B617B69082B06D07B69012B03D07B696F
:1025DC0013F5803F08D1FB681B681A68FB681B6801
:1025EC0042F480721A600BE0FB681B6B122B07D154
:1025FC00FB681B681A68FB681B6842F480721A60DF
:10260C003B6800937B6800224FF00111F86800F0E2
:10261C004FF80346002B0DD0FB681B681B6803F4B6
:10262C008073B3F5807F03D1FB684FF400721A649A
:10263C00032335E0FB681B69B3F5804F08D17B8918
:10264C00DBB21A46FB681B6802F0FE021A611BE043
:10265C007B89DB11DBB203F00603DBB263F00F0303
:10266C00DAB2FB681B681A613B687A680E49F86835
:10267C0000F098F80346002B01D0012310E07B8971
:10268C00DAB2FB681B681A613B687A680749F8681C
:10269C0000F088F80346002B01D0012300E0002352
:1026AC0018461837BD4680BD080001000200010025
:1026BC0080B584B000AFF860B9603B601346FB7125
:1026CC0048E03B68B3F1FF3F44D0FFF725FA0246E0
:1026DC00BB69D31A3A689A4202D33B68002B39D1B2
:1026EC00BB681B0CDBB2012B0DD1FB681B685B6953
:1026FC00DA43BB6813409BB2002B0CBF01230023B1
:10270C00DBB21A460CE0FB681B689B69DA43BB68BA
:10271C0013409BB2002B0CBF01230023DBB21A46E3
:10272C00FB799A4216D1FB6800221A63FB682022BF
:10273C0083F83D20FB68002283F83E20FB681B6C6D
:10274C0043F02002FB681A64FB68002283F83C20EB
:10275C00012323E0BB681B0CDBB2012B0DD1FB6802
:10276C001B685B69DA43BB6813409BB2002B0CBF40
:10277C0001230023DBB21A460CE0FB681B689B6943
:10278C00DA43BB6813409BB2002B0CBF0123002320
:10279C00DBB21A46FB799A4293D0002318461037C5
:1027AC00BD4680BD80B584B000AFF860B9607A607A
:1027BC003B6071E0FB681B685B6903F48063B3F5F5
:1027CC00806F23D1FB681B681A68FB681B6842F496
:1027DC0000721A60FB681B686FF480625A61FB68B8
:1027EC0000221A63FB68202283F83D20FB6800223C
:1027FC0083F83E20FB681B6C43F00402FB681A64F0
:10280C00FB68002283F83C20012367E07B68B3F16E
:10281C00FF3F41D0FFF780F902463B68D31A7A6834
:10282C009A4202D37B68002B36D1BB681B0CDBB2FF
:10283C00012B0CD1FB681B685B69DA43BB68134046
:10284C009BB2002B14BF01230023DBB20BE0FB680F
:10285C001B689B69DA43BB6813409BB2002B14BF07
:10286C0001230023DBB2002B16D0FB6800221A6375
:10287C00FB68202283F83D20FB68002283F83E2071
:10288C00FB681B6C43F02002FB681A64FB68002297
:10289C0083F83C20012321E0BB681B0CDBB2012B2D
:1028AC000CD1FB681B685B69DA43BB6813409BB2B5
:1028BC00002B14BF01230023DBB20BE0FB681B6869
:1028CC009B69DA43BB6813409BB2002B14BF0123F6
:1028DC000023DBB2002B7FF46DAF002318461037BA
:1028EC00BD4680BD80B584B000AFF860B9607A6039
:1028FC0034E0F86800F086F80346002B01D0012381
:10290C0034E0BB68B3F1FF3F28D0FFF705F902466E
:10291C007B68D31ABA689A4202D3BB68002B1DD1CC
:10292C00FB681B685B6903F08003802B16D0FB6887
:10293C0000221A63FB68202283F83D20FB680022EA
:10294C0083F83E20FB681B6C43F02002FB681A6482
:10295C00FB68002283F83C20012307E0FB681B681E
:10296C005B6903F08003802BC3D10023184610371A
:10297C00BD4680BD80B584B000AFF860B9607A60A8
:10298C0034E0F86800F03EF80346002B01D0012338
:10299C0034E0BB68B3F1FF3F28D0FFF7BDF8024627
:1029AC007B68D31ABA689A4202D3BB68002B1DD13C
:1029BC00FB681B685B6903F00403042B16D0FB68EF
:1029CC0000221A63FB68202283F83D20FB6800225A
:1029DC0083F83E20FB681B6C43F02002FB681A64F2
:1029EC00FB68002283F83C20012307E0FB681B688E
:1029FC005B6903F00403042BC3D100231846103782
:102A0C00BD4680BD80B483B000AF78607B681B6826
:102A1C005B6903F48063B3F5806F1BD17B681B6823
:102A2C006FF480625A617B6800221A637B682022F3
:102A3C0083F83D207B68002283F83E207B681B6C6A
:102A4C0043F004027B681A647B68002283F83C2004
:102A5C00012300E0002318460C37BD4680BC7047AC
:102A6C0080B586B000AF78607B68002B01D1012364
:102A7C0072E27B681B6803F00103002B00F0878077
:102A8C00924B5B6803F00C03042B0CD08F4B5B68F0
:102A9C0003F00C03082B12D18C4B5B6803F48033CE
:102AAC00B3F5803F0BD1894B1B6803F40033002B2B
:102ABC006CD07B685B68002B68D101234CE27B688F
:102ACC005B68B3F5803F06D1804B1B687F4A43F4AB
:102ADC00803313602EE07B685B68002B0CD17B4B42
:102AEC001B687A4A23F480331360784B1B68774A4F
:102AFC0023F4802313601DE07B685B68B3F5A02F83
:102B0C000CD1724B1B68714A43F4802313606F4BDA
:102B1C001B686E4A43F4803313600BE06B4B1B68ED
:102B2C006A4A23F480331360684B1B68674A23F4AA
:102B3C00802313607B685B68002B13D0FEF7ECFFDF
:102B4C00386108E0FEF7E8FF02463B69D31A642BB4
:102B5C0001D9032300E25D4B1B6803F40033002B07
:102B6C00F0D014E0FEF7D8FF386108E0FEF7D4FF90
:102B7C0002463B69D31A642B01D90323ECE1534B76
:102B8C001B6803F40033002BF0D100E000BF7B681E
:102B9C001B6803F00203002B63D04C4B5B6803F003
:102BAC000C03002B0BD0494B5B6803F00C03082B78
:102BBC001CD1464B5B6803F48033002B16D1434B7E
:102BCC001B6803F00203002B05D07B681B69012BEB
:102BDC0001D00123C0E13D4B1B6823F0F8027B6858
:102BEC005B69DB00394913430B603AE07B681B6976
:102BFC00002B20D0364B01221A60FEF78DFF386176
:102C0C0008E0FEF789FF02463B69D31A022B01D973
:102C1C000323A1E12D4B1B6803F00203002BF0D022
:102C2C002A4B1B6823F0F8027B685B69DB002749A1
:102C3C0013430B6015E0264B00221A60FEF76CFF65
:102C4C00386108E0FEF768FF02463B69D31A022B95
:102C5C0001D9032380E11D4B1B6803F00203002BF9
:102C6C00F0D17B681B6803F00803002B3AD07B681B
:102C7C009B69002B19D0174B01221A60FEF74CFFF1
:102C8C00386108E0FEF748FF02463B69D31A022B75
:102C9C0001D9032360E10D4B5B6A03F00203002BA7
:102CAC00F0D0012000F0BAFA1CE00A4B00221A60A6
:102CBC00FEF732FF38610FE0FEF72EFF02463B694C
:102CCC00D31A022B08D9032346E100BF001002409F
:102CDC000000424280044242924B5B6A03F00203C2
:102CEC00002BE9D17B681B6803F00403002B00F078
:102CFC00A6800023FB758B4BDB6903F08053002B04
:102D0C000DD1884BDB69874A43F08053D361854BE7
:102D1C00DB6903F08053BB60BB680123FB75824BFE
:102D2C001B6803F48073002B18D17F4B1B687E4A01
:102D3C0043F480731360FEF7EFFE386108E0FEF792
:102D4C00EBFE02463B69D31A642B01D9032303E142
:102D5C00754B1B6803F48073002BF0D07B68DB6829
:102D6C00012B06D16F4B1B6A6E4A43F001031362B1
:102D7C002DE07B68DB68002B0CD16A4B1B6A694A1F
:102D8C0023F001031362674B1B6A664A23F00403AA
:102D9C0013621CE07B68DB68052B0CD1614B1B6A52
:102DAC00604A43F0040313625E4B1B6A5D4A43F0B6
:102DBC00010313620BE05B4B1B6A5A4A23F00103BD
:102DCC001362584B1B6A574A23F0040313627B6847
:102DDC00DB68002B15D0FEF79FFE38610AE0FEF78A
:102DEC009BFE02463B69D31A41F28832934201D9C9
:102DFC000323B1E04B4B1B6A03F00203002BEED014
:102E0C0014E0FEF789FE38610AE0FEF785FE024603
:102E1C003B69D31A41F28832934201D903239BE0D8
:102E2C00404B1B6A03F00203002BEED1FB7D012B00
:102E3C0005D13C4BDB693B4A23F08053D3617B6863
:102E4C00DB69002B00F08780364B5B6803F00C03CA
:102E5C00082B61D07B68DB69022B46D1334B0022F7
:102E6C001A60FEF759FE386108E0FEF755FE02467F
:102E7C003B69D31A022B01D903236DE0294B1B6844
:102E8C0003F00073002BF0D17B681B6AB3F5803F15
:102E9C0008D1244B5B6823F400327B689B68214982
:102EAC0013434B601F4B5B6823F474127B68196AE5
:102EBC007B685B6A0B431B4913434B601B4B012222
:102ECC001A60FEF729FE386108E0FEF725FE02467F
:102EDC003B69D31A022B01D903233DE0114B1B682C
:102EEC0003F00073002BF0D035E0104B00221A6079
:102EFC00FEF712FE386108E0FEF70EFE02463B6953
:102F0C00D31A022B01D9032326E0064B1B6803F0CE
:102F1C000073002BF0D11EE07B68DB69012B07D11D
:102F2C00012319E000100240007000406000424292
:102F3C000B4B5B68FB60FB6803F480327B681B6A9D
:102F4C009A4206D1FB6803F470127B685B6A9A4262
:102F5C0001D0012300E0002318461837BD4680BD80
:102F6C000010024080B584B000AF786039607B6897
:102F7C00002B01D10123D0E06A4B1B6803F007033F
:102F8C003A689A4210D9674B1B6823F007026549CF
:102F9C003B6813430B60634B1B6803F007033A68F1
:102FAC009A4201D00123B8E07B681B6803F002034E
:102FBC00002B20D07B681B6803F00403002B05D08A
:102FCC00594B5B68584A43F4E06353607B681B6859
:102FDC0003F00803002B05D0534B5B68524A43F4B3
:102FEC0060535360504B5B6823F0F0027B689B6826
:102FFC004D4913434B607B681B6803F00103002BA6
:10300C0040D07B685B68012B07D1474B1B6803F4EE
:10301C000033002B15D101237FE07B685B68022B0A
:10302C0007D1414B1B6803F00073002B09D101231E
:10303C0073E03D4B1B6803F00203002B01D101230D
:10304C006BE0394B5B6823F003027B685B683649A5
:10305C0013434B60FEF760FDF8600AE0FEF75CFD81
:10306C000246FB68D31A41F28832934201D90323FA
:10307C0053E02D4B5B6803F00C027B685B689B0094
:10308C009A42EBD1274B1B6803F007033A689A422C
:10309C0010D2244B1B6823F0070222493B681343D0
:1030AC000B60204B1B6803F007033A689A4201D06F
:1030BC00012332E07B681B6803F00403002B08D06B
:1030CC00194B5B6823F4E0627B68DB681649134399
:1030DC004B607B681B6803F00803002B09D0124B74
:1030EC005B6823F460527B681B69DB000E49134359
:1030FC004B6000F021F802460B4B5B681B0903F098
:10310C000F030A49CB5C22FA03F3094A1360094BFB
:10311C001B681846FEF7BEFC002318461037BD4648
:10312C0080BD00BF00200240001002407044000827
:10313C00380000204C00002080B487B000AF002382
:10314C00FB600023BB6000237B6100237B600023BA
:10315C003B611E4B5B68FB60FB6803F00C03042BAC
:10316C0002D0082B03D027E0194B3B6127E0FB680A
:10317C009B0C03F00F03174AD35C7B60FB6803F4D2
:10318C008033002B10D0114B5B685B0C03F00103F8
:10319C00114AD35CBB607B680D4A03FB02F2BB682F
:1031AC00B2FBF3F37B6104E07B680C4A02FB03F394
:1031BC007B617B693B6102E0054B3B6100BF3B6976
:1031CC0018461C37BD4680BC704700BF001002403B
:1031DC0000127A00884400089844000800093D0059
:1031EC0080B400AF024B1B681846BD4680BC7047CC
:1031FC003800002080B500AFFFF7F2FF0246054B08
:10320C005B681B0A03F007030349CB5C22FA03F348
:10321C00184680BD001002408044000880B485B080
:10322C0000AF78600A4B1B680A4AA2FB03235B0AB7
:10323C007A6802FB03F3FB6000BFFB685A1EFA605E
:10324C00002BF9D100BF00BF1437BD4680BC7047BE
:10325C0038000020D34D621080B582B000AF78608A
:10326C007B68002B01D1012341E07B6893F83D3052
:10327C00DBB2002B06D17B68002283F83C207868F7
:10328C00FEF736FB7B68022283F83D207B681A68C8
:10329C007B6804331946104600F05CFA7B68012207
:1032AC0083F846207B68012283F83E207B6801224C
:1032BC0083F83F207B68012283F840207B68012241
:1032CC0083F841207B68012283F842207B6801222D
:1032DC0083F843207B68012283F844207B68012219
:1032EC0083F845207B68012283F83D200023184693
:1032FC000837BD4680BD000080B485B000AF786053
:10330C007B6893F83D30DBB2012B01D001233AE00E
:10331C007B68022283F83D207B681B68DA687B6837
:10332C001B6842F00102DA607B681B68184A934202
:10333C000ED07B681B68B3F1804F09D07B681B688B
:10334C00144A934204D07B681B68134A934211D1F0
:10335C007B681B689B6803F00703FB60FB68062B0C
:10336C0010D07B681B681A687B681B6842F00102EE
:10337C001A6007E07B681B681A687B681B6842F060
:10338C0001021A60002318461437BD4680BC7047F2
:10339C00002C0140000400400008004080B584B0BF
:1033AC0000AF78607B681B68DB68FB607B681B6820
:1033BC001B69BB60BB6803F00203002B20D0FB68C9
:1033CC0003F00203002B1BD07B681B686FF002021A
:1033DC001A617B6801221A777B681B689B6903F072
:1033EC000303002B03D0786800F098F905E07868A7
:1033FC0000F08BF9786800F09AF97B6800221A7754
:10340C00BB6803F00403002B20D0FB6803F004031B
:10341C00002B1BD07B681B686FF004021A617B6861
:10342C0002221A777B681B689B6903F44073002B9C
:10343C0003D0786800F072F905E0786800F065F95F
:10344C00786800F074F97B6800221A77BB6803F087
:10345C000803002B20D0FB6803F00803002B1BD0C3
:10346C007B681B686FF008021A617B6804221A776C
:10347C007B681B68DB6903F00303002B03D07868BF
:10348C0000F04CF905E0786800F03FF9786800F03E
:10349C004EF97B6800221A77BB6803F01003002BEF
:1034AC0020D0FB6803F01003002B1BD07B681B683B
:1034BC006FF010021A617B6808221A777B681B6810
:1034CC00DB6903F44073002B03D0786800F026F915
:1034DC0005E0786800F019F9786800F028F97B6845
:1034EC0000221A77BB6803F00103002B0CD0FB6899
:1034FC0003F00103002B07D07B681B686FF00102FF
:10350C001A617868FDF7B4FEBB6803F08003002BEA
:10351C000CD0FB6803F08003002B07D07B681B6882
:10352C006FF080021A61786800F07FFABB6803F0D4
:10353C004003002B0CD0FB6803F04003002B07D09A
:10354C007B681B686FF040021A61786800F0F8F82D
:10355C00BB6803F02003002B0CD0FB6803F02003A6
:10356C00002B07D07B681B686FF020021A6178680B
:10357C0000F052FA00BF1037BD4680BD80B584B054
:10358C0000AF786039600023FB737B6893F83C30A4
:10359C00012B01D10223B4E07B68012283F83C208B
:1035AC007B68022283F83D207B681B689B68BB60AC
:1035BC00BB6823F07703BB60BB6823F47F43BB601D
:1035CC007B681B68BA689A603B681B68B3F5005F40
:1035DC003ED0B3F5005F00F28780B3F5805F00F05A
:1035EC008680B3F5805F7FD8702B1AD0702B7BD878
:1035FC00602B50D0602B77D8502B3CD0502B73D8ED
:10360C00402B58D0402B6FD8302B64D0302B6BD83C
:10361C00202B60D0202B67D8002B5CD0102B5AD0DD
:10362C0062E07B6818683B6899683B685A683B683D
:10363C00DB6800F074F97B681B689B68BB60BB6837
:10364C0043F07703BB607B681B68BA689A604FE0F5
:10365C007B6818683B6899683B685A683B68DB680C
:10366C0000F05DF97B681B689A687B681B6842F404
:10367C0080429A603CE07B6818683B6859683B68FC
:10368C00DB681A4600F0D4F87B681B68502118469A
:10369C0000F02BF92CE07B6818683B6859683B6894
:1036AC00DB681A4600F0F2F87B681B68602118464C
:1036BC0000F01BF91CE07B6818683B6859683B6894
:1036CC00DB681A4600F0B4F87B681B68402118468A
:1036DC0000F00BF90CE07B681A683B681B68194614
:1036EC00104600F002F903E00123FB7300E000BF79
:1036FC007B68012283F83D207B68002283F83C2004
:10370C00FB7B18461037BD4680BD80B483B000AF3C
:10371C00786000BF0C37BD4680BC704780B483B066
:10372C0000AF786000BF0C37BD4680BC704780B4DA
:10373C0083B000AF786000BF0C37BD4680BC7047CB
:10374C0080B483B000AF786000BF0C37BD4680BC3E
:10375C007047000080B485B000AF786039607B683A
:10376C001B68FB607B682F4A93420BD07B68B3F1DC
:10377C00804F07D07B682C4A934203D07B682B4A3E
:10378C00934208D1FB6823F07003FB603B685B68D5
:10379C00FA681343FB607B68224A93420BD07B6828
:1037AC00B3F1804F07D07B681F4A934203D07B68EC
:1037BC001E4A934208D1FB6823F44073FB603B68BC
:1037CC00DB68FA681343FB60FB6823F080023B68FC
:1037DC005B691343FB607B68FA681A603B689A6804
:1037EC007B68DA623B681A687B689A627B680D4A70
:1037FC00934203D13B681A697B681A637B68012288
:10380C005A617B681B6903F00103002B05D07B68B0
:10381C001B6923F001027B681A6100BF1437BD4697
:10382C0080BC7047002C01400004004000080040A0
:10383C0080B487B000AFF860B9607A60FB681B6A2F
:10384C007B61FB681B6A23F00102FB681A62FB6850
:10385C009B693B613B6923F0F0033B617B681B0177
:10386C003A6913433B617B6923F00A037B617A69F4
:10387C00BB6813437B61FB683A699A61FB687A69A0
:10388C001A6200BF1C37BD4680BC704780B487B03D
:10389C0000AFF860B9607A60FB681B6A7B61FB68FB
:1038AC001B6A23F01002FB681A62FB689B693B6180
:1038BC003B6923F470433B617B681B033A691343F8
:1038CC003B617B6923F0A0037B61BB681B017A69B8
:1038DC0013437B61FB683A699A61FB687A691A62E7
:1038EC0000BF1C37BD4680BC704780B485B000AFAC
:1038FC00786039607B689B68FB60FB6823F0700321
:10390C00FB603A68FB68134343F00703FB607B687A
:10391C00FA689A6000BF1437BD4680BC704780B40B
:10392C0087B000AFF860B9607A603B60FB689B6859
:10393C007B617B6923F47F437B613B681A027B6864
:10394C001A43BB6813437A6913437B61FB687A693A
:10395C009A6000BF1C37BD4680BC704780B485B0F0
:10396C0000AF786039607B6893F83C30012B01D153
:10397C00022346E07B68012283F83C207B6802220C
:10398C0083F83D207B681B685B68FB607B681B6869
:10399C009B68BB60FB6823F07003FB603B681B6893
:1039AC00FA681343FB607B681B68FA685A607B6893
:1039BC001B68164A93420ED07B681B68B3F1804F8C
:1039CC0009D07B681B68124A934204D07B681B6841
:1039DC00104A93420CD1BB6823F08003BB603B6858
:1039EC005B68BA681343BB607B681B68BA689A60F3
:1039FC007B68012283F83D207B68002283F83C2001
:103A0C00002318461437BD4680BC7047002C01407B
:103A1C00000400400008004080B483B000AF786020
:103A2C0000BF0C37BD4680BC704780B483B000AF7C
:103A3C00786000BF0C37BD4680BC70470EB46FF089
:103A4C00004100B59CB01DAB02900690079104910B
:103A5C000848094953F8042B0591006802A9019301
:103A6C0000F092F90022029B1A701CB05DF804EB76
:103A7C0003B07047540000200802FFFF03460244C5
:103A8C00934200D1704703F8011BF9E7014B18680A
:103A9C00704700BF5400002070B500260C4D0D4C33
:103AAC00641BA410A64209D100F078FC00260A4D34
:103ABC000A4C641BA410A64205D170BD55F8043BFA
:103ACC0098470136EEE755F8043B98470136F2E784
:103ADC00D0440008D0440008D0440008D444000866
:103AEC007047704738B50546002940D051F8043C62
:103AFC000C1F002BB8BFE41800F0DEF81C4A13684A
:103B0C0033B9636014602846BDE8384000F0DAB879
:103B1C00A34208D9206821188B4201BF19685B6841
:103B2C0009182160EDE71A465B680BB1A342FAD97C
:103B3C0011685018A0420BD12068014450188342E0
:103B4C001160E0D118685B68084410605360DAE7D4
:103B5C0002D90C232B60D6E7206821188B4201BFB9
:103B6C0019685B680918216063605460CBE738BD45
:103B7C00A803002070B50F4E0C463168054611B9EC
:103B8C0000F0AAFB30602146284600F0A5FB431C40
:103B9C0003D14FF0FF34204670BDC41C24F0030445
:103BAC00A042F8D0211A284600F096FB0130F2D141
:103BBC00EFE700BFA40300202DE9F843CD1C25F04E
:103BCC00030508350C2D38BF0C25002D064601DBEE
:103BDC00A94204D90C2333600020BDE8F883DFF838
:103BEC00D48000F069F8D8F800301C4644BB294654
:103BFC003046FFF7BFFF431C044658D1D8F80040AD
:103C0C002746002F43D1002C4BD023683946304631
:103C1C0004EB030900F060FB814542D1216830467A
:103C2C006D1A2946FFF7A6FF01303AD023682B44C2
:103C3C002360D8F800305A6862BBC8F800700FE0F7
:103C4C002268521B20D40B2A17D96119A342256074
:103C5C0018BF5960636808BFC8F8001062514B6008
:103C6C00304600F02FF804F10B00231D20F0070064
:103C7C00C21A1CBF1B1AA350AFE76268A3420CBF49
:103C8C00C8F800205A60EBE723466468AEE73C4670
:103C9C007F68B6E71A465B68A342FBD100235360EA
:103CAC00DEE70C233046336000F00CF894E7056037
:103CBC00D6E700BFA80300200148FFF711BF00BFE3
:103CCC00A00300200148FFF70CBF00BFA003002099
:103CDC002DE9F0471F468E688246BE420C46904640
:103CEC000B682DD8B1F90C2012F4906F26D06569B1
:103CFC00096905EB4505A3EB010905EBD5757B1CA3
:103D0C004B446D109D4238BF1D46530527D529469F
:103D1C00FFF752FF064660B34A46216900F0FAFAF3
:103D2C00A38923F4906343F08003A38126614E445E
:103D3C0026603E466561A5EB0905A560BE4200D92B
:103D4C003E4632464146206800F0ACFA0020A3689B
:103D5C009B1BA360236833442360BDE8F0872A468D
:103D6C0000F0E6FA06460028E0D150462169FFF73C
:103D7C00B9FE0C23CAF80030A3894FF0FF3043F092
:103D8C004003A381E9E700002DE9F04F98468B89A9
:103D9C0007461B060D4614469DB010D50B6973B92A
:103DAC004021FFF709FF2860286130B90C233B60E4
:103DBC004FF0FF301DB0BDE8F08F40236B61002346
:103DCC00099320238DF8293030234FF00109CDF8C9
:103DDC000C80DFF898818DF82A3023469A4613F828
:103DEC00012B0AB1252AF9D1BAEB040B0BD05B4697
:103DFC00224629463846FFF76BFF013000F0A780BA
:103E0C00099A5A4409929AF80030002B00F09F80CE
:103E1C0000234FF0FF32CDE905230AF1010A049388
:103E2C0007938DF853301A935446052214F8011B4E
:103E3C004E4800F061FA049AD8B9D00644BF20234A
:103E4C008DF85330110744BF2B238DF853309AF85B
:103E5C0000302A2B15D0544600204FF00A0C079A3C
:103E6C00214611F8013B303B092B4BD9B0B10792DD
:103E7C0014E0A0EB080309FA03F31343A2460493DE
:103E8C00D2E7039B191D1B680391002BBBBF5B4240
:103E9C0042F0020207930793B8BF049223782E2BAB
:103EAC000AD163782A2B32D1039B02341A1D1B686A
:103EBC00039243EAE3730593DFF8B4A00322504660
:103ECC00217800F019FA38B14022049BA0EB0A00CB
:103EDC00824013430134049314F8011B0622254835
:103EEC008DF8281000F008FA002836D0224B1BBBA6
:103EFC00039B073323F0070308330393099B3344D5
:103F0C0009936AE70C4601200CFB0232A8E7002358
:103F1C004FF00A0C194601340593204610F8012B7A
:103F2C00303A092A03D9002BC6D00591C4E70446C0
:103F3C0001230CFB0121F0E703AB00932A46384622
:103F4C000E4B04A9AFF30080421C0646D6D1AB89B8
:103F5C005B063FF52DAF09982CE703AB00932A467F
:103F6C003846064B04A900F07DF8EDE79A440008AA
:103F7C00A0440008A444000800000000DD3C000838
:103F8C002DE9F047164698468A680B690746934216
:103F9C00B8BF1346336091F843200C46DDF82090EF
:103FAC000AB1013333602368990642BF3368023388
:103FBC003360256815F0060506D104F1190AE3688B
:103FCC0032689B1AAB422BDC94F843302268003BDE
:103FDC0018BF0123920630D44146384604F14302FF
:103FEC00C847013023D02368226903F00603042B51
:103FFC0014BF002533684FF0000608BFE56804F1D4
:10400C001A0408BFED1A54F8123C08BF25EAE575EE
:10401C009342C4BF9B1AED18B5421AD1002008E098
:10402C000123524641463846C847013003D14FF070
:10403C00FF30BDE8F0870135C1E73020E11881F889
:10404C0043005A1C94F845102244023382F8431062
:10405C00C2E70123224641463846C8470130E6D024
:10406C000136D9E72DE9FF470F7E9146782F804620
:10407C000C469A460C9E01F1430207D8622F0AD8CF
:10408C00002F00F0D380582F00F0BA8004F14206C4
:10409C0084F842703AE0A7F16303152BF6D801A11E
:1040AC0051F823F0094100081D410008994000080F
:1040BC009940000899400008994000081D410008EB
:1040CC009940000899400008994000089940000860
:1040DC001F42000847410008D941000899400008D8
:1040EC0099400008414200089940000847410008E7
:1040FC009940000899400008E141000833681A1DF6
:10410C001B68326004F1420684F8423001239EE0C1
:10411C0033682068191D3160060601D51D6803E05F
:10412C004506FBD5B3F90050002D03DA2D236D4263
:10413C0084F843300A23594811E021683368080693
:10414C0053F8045B02D4490648BFADB26F2F3360FD
:10415C0014BF0A2308235148002184F843106668D1
:10416C00002EA8BF2168A660A4BF21F00401216025
:10417C000DB9002E4BD01646B5FBF3F103FB1157CE
:10418C00C75D06F8017D2F46BB420D46F4D9082BBE
:10419C000BD12368DF0708D5236961689942DEBF1C
:1041AC00302306F8013C06F1FF36921B22614B4688
:1041BC0021464046CDF800A003AAFFF7E1FE0130EE
:1041CC004AD14FF0FF3004B0BDE8F087236843F0CC
:1041DC00200323607827324884F8457023683168BF
:1041EC001F0651F8045B02D45F0648BFADB23160C4
:1041FC00D90744BF43F0200323601DB11023ABE764
:10420C002648E9E7236823F020032360F6E71646E7
:10421C00BDE733682568181D616930602E061B6880
:10422C0001D5196002E06806FBD5198000231646FB
:10423C002361BCE7336800211A1D32601E68626876
:10424C00304600F059F808B1801B60606368236148
:10425C00002384F84330AAE7324649464046236996
:10426C00D0470130ADD023689B0713D4E068039B83
:10427C009842B8BF1846A6E7012332464946404645
:10428C00D04701309DD00135E36803995B1AAB42EE
:10429C00F2DCEBE7002504F11906F5E7AB44000866
:1042AC00BC440008884210B501EB020402D98442D8
:1042BC00234607D8431EA14208D011F8012B03F85E
:1042CC00012FF8E7014602448A4200D110BD13F8D1
:1042DC00014D02F8014DF7E738B50023054D0446B2
:1042EC0008462B60FDF75EFB431C02D12B6803B123
:1042FC00236038BD9C030020034610B5C9B20244AC
:10430C009342184601D1002003E0047801338C421B
:10431C00F6D110BD0A44914200F1FF3300D1704731
:10432C0010B511F8014B914203F8014FF9D110BDB2
:10433C002DE9F041804615460C4621B91146BDE8E1
:10434C00F041FFF739BC2AB9FFF7CCFB002420461B
:10435C00BDE8F08100F01AF88542064602D8B5EBAC
:10436C00500FF4D829464046FFF726FC0746002894
:10437C00ECD0B5422A46214628BF3246FFF7CAFF89
:10438C0021464046FFF7AEFB3C46E0E751F8043CC3
:10439C00181F002BBCBF0B58C0187047F8B500BFD6
:1043AC00F8BC08BC9E467047F8B500BFF8BC08BC0A
:0443BC009E46704762
:1043C0002054494D4520444F20203A0054494D4542
:1043D0002058414E48203A0054494D452056414E00
:1043E00047203A0043484520444F204D414E554117
:1043F0004C00000043484520444F20534554544945
:104400004E4700002054494D4520444F20203A009B
:1044100054494D452058414E48203A0054494D4595
:104420002056414E47203A0043484520444F2053F0
:10443000455454494E47000054494D452058414E7B
:1044400048203A0054494D452056414E47203A00F5
:104450005448494549204C4150204C4F49000000E8
:1044600052455345542054494D45210025640000D0
:104470000000000000000000010203040607080914
:1044800000000000010203040203040506070809F6
:104490000A0B0C0D0E0F10100102232D302B2000E3
:1044A000686C4C00656667454647003031323334EE
:1044B000353637383941424344454600303132338E
:1044C0003435363738396162636465660000000050
:0444D00031010008AE
:0444D4000D010008CE
:1044D80001000000010000000100000001000000D0
:1044E80001000000010000000100000001000000C0
:1044F80001000000010000000100000001000000B0
:10450800010000000A00000000127A00020000000A
:104518000500000003000000020000001000000079
:104528000100000058000020000000006402002084
:10453800CC0200203403002000000000000000002E
:104548000000000000000000000000000000000063
:104558000000000000000000000000000000000053
:104568000000000000000000000000000000000043
:04457800000000003F
:0400000508001A29AC
:00000001FF
